{
  "address": "0x1f88E6143743C0325Fb8a0c0fBD8f34cFD9Ea5ce",
  "abi": [
    {
      "inputs": [
        {
          "internalType": "uint256",
          "name": "updateInterval",
          "type": "uint256"
        },
        {
          "internalType": "address",
          "name": "_pricefeed",
          "type": "address"
        },
        {
          "internalType": "address",
          "name": "_vrfCoordinator",
          "type": "address"
        }
      ],
      "stateMutability": "nonpayable",
      "type": "constructor"
    },
    {
      "inputs": [
        {
          "internalType": "address",
          "name": "have",
          "type": "address"
        },
        {
          "internalType": "address",
          "name": "want",
          "type": "address"
        }
      ],
      "name": "OnlyCoordinatorCanFulfill",
      "type": "error"
    },
    {
      "anonymous": false,
      "inputs": [
        {
          "indexed": true,
          "internalType": "address",
          "name": "owner",
          "type": "address"
        },
        {
          "indexed": true,
          "internalType": "address",
          "name": "approved",
          "type": "address"
        },
        {
          "indexed": true,
          "internalType": "uint256",
          "name": "tokenId",
          "type": "uint256"
        }
      ],
      "name": "Approval",
      "type": "event"
    },
    {
      "anonymous": false,
      "inputs": [
        {
          "indexed": true,
          "internalType": "address",
          "name": "owner",
          "type": "address"
        },
        {
          "indexed": true,
          "internalType": "address",
          "name": "operator",
          "type": "address"
        },
        {
          "indexed": false,
          "internalType": "bool",
          "name": "approved",
          "type": "bool"
        }
      ],
      "name": "ApprovalForAll",
      "type": "event"
    },
    {
      "anonymous": false,
      "inputs": [
        {
          "indexed": true,
          "internalType": "address",
          "name": "previousOwner",
          "type": "address"
        },
        {
          "indexed": true,
          "internalType": "address",
          "name": "newOwner",
          "type": "address"
        }
      ],
      "name": "OwnershipTransferred",
      "type": "event"
    },
    {
      "anonymous": false,
      "inputs": [
        {
          "indexed": false,
          "internalType": "string",
          "name": "marketTrend",
          "type": "string"
        }
      ],
      "name": "TokensUpdated",
      "type": "event"
    },
    {
      "anonymous": false,
      "inputs": [
        {
          "indexed": true,
          "internalType": "address",
          "name": "from",
          "type": "address"
        },
        {
          "indexed": true,
          "internalType": "address",
          "name": "to",
          "type": "address"
        },
        {
          "indexed": true,
          "internalType": "uint256",
          "name": "tokenId",
          "type": "uint256"
        }
      ],
      "name": "Transfer",
      "type": "event"
    },
    {
      "inputs": [],
      "name": "COORDINATOR",
      "outputs": [
        {
          "internalType": "contract VRFCoordinatorV2Interface",
          "name": "",
          "type": "address"
        }
      ],
      "stateMutability": "view",
      "type": "function"
    },
    {
      "inputs": [
        {
          "internalType": "address",
          "name": "to",
          "type": "address"
        },
        {
          "internalType": "uint256",
          "name": "tokenId",
          "type": "uint256"
        }
      ],
      "name": "approve",
      "outputs": [],
      "stateMutability": "nonpayable",
      "type": "function"
    },
    {
      "inputs": [
        {
          "internalType": "address",
          "name": "owner",
          "type": "address"
        }
      ],
      "name": "balanceOf",
      "outputs": [
        {
          "internalType": "uint256",
          "name": "",
          "type": "uint256"
        }
      ],
      "stateMutability": "view",
      "type": "function"
    },
    {
      "inputs": [],
      "name": "callbackGasLimit",
      "outputs": [
        {
          "internalType": "uint32",
          "name": "",
          "type": "uint32"
        }
      ],
      "stateMutability": "view",
      "type": "function"
    },
    {
      "inputs": [
        {
          "internalType": "bytes",
          "name": "",
          "type": "bytes"
        }
      ],
      "name": "checkUpkeep",
      "outputs": [
        {
          "internalType": "bool",
          "name": "upkeepNeeded",
          "type": "bool"
        },
        {
          "internalType": "bytes",
          "name": "",
          "type": "bytes"
        }
      ],
      "stateMutability": "view",
      "type": "function"
    },
    {
      "inputs": [],
      "name": "currentMarketTrend",
      "outputs": [
        {
          "internalType": "enum BullBear.MarketTrend",
          "name": "",
          "type": "uint8"
        }
      ],
      "stateMutability": "view",
      "type": "function"
    },
    {
      "inputs": [],
      "name": "currentPrice",
      "outputs": [
        {
          "internalType": "int256",
          "name": "",
          "type": "int256"
        }
      ],
      "stateMutability": "view",
      "type": "function"
    },
    {
      "inputs": [
        {
          "internalType": "uint256",
          "name": "tokenId",
          "type": "uint256"
        }
      ],
      "name": "getApproved",
      "outputs": [
        {
          "internalType": "address",
          "name": "",
          "type": "address"
        }
      ],
      "stateMutability": "view",
      "type": "function"
    },
    {
      "inputs": [],
      "name": "getLatestPrice",
      "outputs": [
        {
          "internalType": "int256",
          "name": "",
          "type": "int256"
        }
      ],
      "stateMutability": "view",
      "type": "function"
    },
    {
      "inputs": [],
      "name": "interval",
      "outputs": [
        {
          "internalType": "uint256",
          "name": "",
          "type": "uint256"
        }
      ],
      "stateMutability": "view",
      "type": "function"
    },
    {
      "inputs": [
        {
          "internalType": "address",
          "name": "owner",
          "type": "address"
        },
        {
          "internalType": "address",
          "name": "operator",
          "type": "address"
        }
      ],
      "name": "isApprovedForAll",
      "outputs": [
        {
          "internalType": "bool",
          "name": "",
          "type": "bool"
        }
      ],
      "stateMutability": "view",
      "type": "function"
    },
    {
      "inputs": [],
      "name": "lastTimeStamp",
      "outputs": [
        {
          "internalType": "uint256",
          "name": "",
          "type": "uint256"
        }
      ],
      "stateMutability": "view",
      "type": "function"
    },
    {
      "inputs": [],
      "name": "name",
      "outputs": [
        {
          "internalType": "string",
          "name": "",
          "type": "string"
        }
      ],
      "stateMutability": "view",
      "type": "function"
    },
    {
      "inputs": [],
      "name": "owner",
      "outputs": [
        {
          "internalType": "address",
          "name": "",
          "type": "address"
        }
      ],
      "stateMutability": "view",
      "type": "function"
    },
    {
      "inputs": [
        {
          "internalType": "uint256",
          "name": "tokenId",
          "type": "uint256"
        }
      ],
      "name": "ownerOf",
      "outputs": [
        {
          "internalType": "address",
          "name": "",
          "type": "address"
        }
      ],
      "stateMutability": "view",
      "type": "function"
    },
    {
      "inputs": [
        {
          "internalType": "bytes",
          "name": "",
          "type": "bytes"
        }
      ],
      "name": "performUpkeep",
      "outputs": [],
      "stateMutability": "nonpayable",
      "type": "function"
    },
    {
      "inputs": [],
      "name": "pricefeed",
      "outputs": [
        {
          "internalType": "contract AggregatorV3Interface",
          "name": "",
          "type": "address"
        }
      ],
      "stateMutability": "view",
      "type": "function"
    },
    {
      "inputs": [
        {
          "internalType": "uint256",
          "name": "requestId",
          "type": "uint256"
        },
        {
          "internalType": "uint256[]",
          "name": "randomWords",
          "type": "uint256[]"
        }
      ],
      "name": "rawFulfillRandomWords",
      "outputs": [],
      "stateMutability": "nonpayable",
      "type": "function"
    },
    {
      "inputs": [],
      "name": "renounceOwnership",
      "outputs": [],
      "stateMutability": "nonpayable",
      "type": "function"
    },
    {
      "inputs": [
        {
          "internalType": "uint256",
          "name": "",
          "type": "uint256"
        }
      ],
      "name": "s_randomWords",
      "outputs": [
        {
          "internalType": "uint256",
          "name": "",
          "type": "uint256"
        }
      ],
      "stateMutability": "view",
      "type": "function"
    },
    {
      "inputs": [],
      "name": "s_requestId",
      "outputs": [
        {
          "internalType": "uint256",
          "name": "",
          "type": "uint256"
        }
      ],
      "stateMutability": "view",
      "type": "function"
    },
    {
      "inputs": [],
      "name": "s_subscriptionId",
      "outputs": [
        {
          "internalType": "uint64",
          "name": "",
          "type": "uint64"
        }
      ],
      "stateMutability": "view",
      "type": "function"
    },
    {
      "inputs": [
        {
          "internalType": "address",
          "name": "to",
          "type": "address"
        }
      ],
      "name": "safeMint",
      "outputs": [],
      "stateMutability": "nonpayable",
      "type": "function"
    },
    {
      "inputs": [
        {
          "internalType": "address",
          "name": "from",
          "type": "address"
        },
        {
          "internalType": "address",
          "name": "to",
          "type": "address"
        },
        {
          "internalType": "uint256",
          "name": "tokenId",
          "type": "uint256"
        }
      ],
      "name": "safeTransferFrom",
      "outputs": [],
      "stateMutability": "nonpayable",
      "type": "function"
    },
    {
      "inputs": [
        {
          "internalType": "address",
          "name": "from",
          "type": "address"
        },
        {
          "internalType": "address",
          "name": "to",
          "type": "address"
        },
        {
          "internalType": "uint256",
          "name": "tokenId",
          "type": "uint256"
        },
        {
          "internalType": "bytes",
          "name": "data",
          "type": "bytes"
        }
      ],
      "name": "safeTransferFrom",
      "outputs": [],
      "stateMutability": "nonpayable",
      "type": "function"
    },
    {
      "inputs": [
        {
          "internalType": "address",
          "name": "operator",
          "type": "address"
        },
        {
          "internalType": "bool",
          "name": "approved",
          "type": "bool"
        }
      ],
      "name": "setApprovalForAll",
      "outputs": [],
      "stateMutability": "nonpayable",
      "type": "function"
    },
    {
      "inputs": [
        {
          "internalType": "uint32",
          "name": "maxGas",
          "type": "uint32"
        }
      ],
      "name": "setCallbackGasLimit",
      "outputs": [],
      "stateMutability": "nonpayable",
      "type": "function"
    },
    {
      "inputs": [
        {
          "internalType": "uint256",
          "name": "newInterval",
          "type": "uint256"
        }
      ],
      "name": "setInterval",
      "outputs": [],
      "stateMutability": "nonpayable",
      "type": "function"
    },
    {
      "inputs": [
        {
          "internalType": "address",
          "name": "newFeed",
          "type": "address"
        }
      ],
      "name": "setPriceFeed",
      "outputs": [],
      "stateMutability": "nonpayable",
      "type": "function"
    },
    {
      "inputs": [
        {
          "internalType": "uint64",
          "name": "_id",
          "type": "uint64"
        }
      ],
      "name": "setSubscriptionId",
      "outputs": [],
      "stateMutability": "nonpayable",
      "type": "function"
    },
    {
      "inputs": [
        {
          "internalType": "address",
          "name": "_address",
          "type": "address"
        }
      ],
      "name": "setVrfCoodinator",
      "outputs": [],
      "stateMutability": "nonpayable",
      "type": "function"
    },
    {
      "inputs": [
        {
          "internalType": "bytes4",
          "name": "interfaceId",
          "type": "bytes4"
        }
      ],
      "name": "supportsInterface",
      "outputs": [
        {
          "internalType": "bool",
          "name": "",
          "type": "bool"
        }
      ],
      "stateMutability": "view",
      "type": "function"
    },
    {
      "inputs": [],
      "name": "symbol",
      "outputs": [
        {
          "internalType": "string",
          "name": "",
          "type": "string"
        }
      ],
      "stateMutability": "view",
      "type": "function"
    },
    {
      "inputs": [
        {
          "internalType": "uint256",
          "name": "index",
          "type": "uint256"
        }
      ],
      "name": "tokenByIndex",
      "outputs": [
        {
          "internalType": "uint256",
          "name": "",
          "type": "uint256"
        }
      ],
      "stateMutability": "view",
      "type": "function"
    },
    {
      "inputs": [
        {
          "internalType": "address",
          "name": "owner",
          "type": "address"
        },
        {
          "internalType": "uint256",
          "name": "index",
          "type": "uint256"
        }
      ],
      "name": "tokenOfOwnerByIndex",
      "outputs": [
        {
          "internalType": "uint256",
          "name": "",
          "type": "uint256"
        }
      ],
      "stateMutability": "view",
      "type": "function"
    },
    {
      "inputs": [
        {
          "internalType": "uint256",
          "name": "tokenId",
          "type": "uint256"
        }
      ],
      "name": "tokenURI",
      "outputs": [
        {
          "internalType": "string",
          "name": "",
          "type": "string"
        }
      ],
      "stateMutability": "view",
      "type": "function"
    },
    {
      "inputs": [],
      "name": "totalSupply",
      "outputs": [
        {
          "internalType": "uint256",
          "name": "",
          "type": "uint256"
        }
      ],
      "stateMutability": "view",
      "type": "function"
    },
    {
      "inputs": [
        {
          "internalType": "address",
          "name": "from",
          "type": "address"
        },
        {
          "internalType": "address",
          "name": "to",
          "type": "address"
        },
        {
          "internalType": "uint256",
          "name": "tokenId",
          "type": "uint256"
        }
      ],
      "name": "transferFrom",
      "outputs": [],
      "stateMutability": "nonpayable",
      "type": "function"
    },
    {
      "inputs": [
        {
          "internalType": "address",
          "name": "newOwner",
          "type": "address"
        }
      ],
      "name": "transferOwnership",
      "outputs": [],
      "stateMutability": "nonpayable",
      "type": "function"
    }
  ],
  "transactionHash": "0x22b9a5a91c85827e38f7a21bf47dc0d9843308d9936c54c0d744a7902edca7f0",
  "args": [
    "30",
    "0xD4a33860578De61DBAbDc8BFdb98FD742fA7028e",
    "0x2Ca8E0C643bDe4C2E08ab1fA0da3401AdAD7734D"
  ],
  "numDeployments": 1,
  "solcInputHash": "80d89e2e66b50f9e9caafbac6b2f8d4c",
  "bytecode": "0x60a06040526207a120601160006101000a81548163ffffffff021916908363ffffffff1602179055507f79d3d8832d904592c0bf9818b621522c988bb8b0c05cdc3b15aea1b6e8db0c1560001b6012556000601660006101000a81548160ff0219169083600181111562000078576200007762000825565b5b021790555060405180606001604052806040518060800160405280605c815260200162005428605c913981526020016040518060800160405280605c81526020016200553e605c913981526020016040518060800160405280605d8152602001620053cb605d91398152506017906003620000f5929190620004cc565b5060405180606001604052806040518060800160405280605d8152602001620054e1605d913981526020016040518060800160405280605d81526020016200559a605d913981526020016040518060800160405280605d815260200162005484605d913981525060189060036200016e929190620004cc565b503480156200017c57600080fd5b50604051620055f7380380620055f78339818101604052810190620001a29190620006ad565b806040518060400160405280600981526020017f42756c6c264265617200000000000000000000000000000000000000000000008152506040518060400160405280600481526020017f4242544b0000000000000000000000000000000000000000000000000000000081525081600090805190602001906200022792919062000533565b5080600190805190602001906200024092919062000533565b50505062000263620002576200034a60201b60201c565b6200035260201b60201c565b8073ffffffffffffffffffffffffffffffffffffffff1660808173ffffffffffffffffffffffffffffffffffffffff1660601b8152505050826013819055504260148190555081600d60006101000a81548173ffffffffffffffffffffffffffffffffffffffff021916908373ffffffffffffffffffffffffffffffffffffffff160217905550620002fa6200041860201b60201c565b60158190555080600e60006101000a81548173ffffffffffffffffffffffffffffffffffffffff021916908373ffffffffffffffffffffffffffffffffffffffff160217905550505050620008f0565b600033905090565b6000600b60009054906101000a900473ffffffffffffffffffffffffffffffffffffffff16905081600b60006101000a81548173ffffffffffffffffffffffffffffffffffffffff021916908373ffffffffffffffffffffffffffffffffffffffff1602179055508173ffffffffffffffffffffffffffffffffffffffff168173ffffffffffffffffffffffffffffffffffffffff167f8be0079c531659141344cd1fd0a4f28419497f9722a3daafe3b4186f6b6457e060405160405180910390a35050565b600080600d60009054906101000a900473ffffffffffffffffffffffffffffffffffffffff1673ffffffffffffffffffffffffffffffffffffffff1663feaf968c6040518163ffffffff1660e01b815260040160a06040518083038186803b1580156200048457600080fd5b505afa15801562000499573d6000803e3d6000fd5b505050506040513d601f19601f82011682018060405250810190620004bf919062000709565b5050509150508091505090565b82805482825590600052602060002090810192821562000520579160200282015b828111156200051f5782518290805190602001906200050e92919062000533565b5091602001919060010190620004ed565b5b5090506200052f9190620005c4565b5090565b8280546200054190620007ef565b90600052602060002090601f016020900481019282620005655760008555620005b1565b82601f106200058057805160ff1916838001178555620005b1565b82800160010185558215620005b1579182015b82811115620005b057825182559160200191906001019062000593565b5b509050620005c09190620005ec565b5090565b5b80821115620005e85760008181620005de91906200060b565b50600101620005c5565b5090565b5b8082111562000607576000816000905550600101620005ed565b5090565b5080546200061990620007ef565b6000825580601f106200062d57506200064e565b601f0160209004906000526020600020908101906200064d9190620005ec565b5b50565b600081519050620006628162000888565b92915050565b6000815190506200067981620008a2565b92915050565b6000815190506200069081620008bc565b92915050565b600081519050620006a781620008d6565b92915050565b600080600060608486031215620006c957620006c862000883565b5b6000620006d9868287016200067f565b9350506020620006ec8682870162000651565b9250506040620006ff8682870162000651565b9150509250925092565b600080600080600060a0868803121562000728576200072762000883565b5b6000620007388882890162000696565b95505060206200074b8882890162000668565b94505060406200075e888289016200067f565b935050606062000771888289016200067f565b9250506080620007848882890162000696565b9150509295509295909350565b60006200079e82620007af565b9050919050565b6000819050919050565b600073ffffffffffffffffffffffffffffffffffffffff82169050919050565b6000819050919050565b600069ffffffffffffffffffff82169050919050565b600060028204905060018216806200080857607f821691505b602082108114156200081f576200081e62000854565b5b50919050565b7f4e487b7100000000000000000000000000000000000000000000000000000000600052602160045260246000fd5b7f4e487b7100000000000000000000000000000000000000000000000000000000600052602260045260246000fd5b600080fd5b620008938162000791565b81146200089f57600080fd5b50565b620008ad81620007a5565b8114620008b957600080fd5b50565b620008c781620007cf565b8114620008d357600080fd5b50565b620008e181620007d9565b8114620008ed57600080fd5b50565b60805160601c614ab5620009166000396000818161096a01526109be0152614ab56000f3fe608060405234801561001057600080fd5b506004361061023d5760003560e01c806370a082311161013b578063a4eb718c116100b8578063e985e9c51161007c578063e985e9c5146106a3578063ea7b4f77146106d3578063f0e8b3ae146106ef578063f2fde38b1461070d578063f6eaffc8146107295761023d565b8063a4eb718c14610601578063b88d4fde1461061d578063c87b56dd14610639578063cb02880214610669578063e89e106a146106855761023d565b80638e15f473116100ff5780638e15f4731461056d578063947a36fb1461058b57806395d89b41146105a95780639d1b464a146105c7578063a22cb465146105e55761023d565b806370a08231146104db578063715018a61461050b578063724e78da146105155780638ac00021146105315780638da5cb5b1461054f5761023d565b80632f745c59116101c95780634585e33b1161018d5780634585e33b146104105780634f6ccce71461042c578063590f21131461045c5780636352211e1461047a5780636e04ff0d146104aa5761023d565b80632f745c591461036c5780633b2bcbf11461039c5780633f3b3b27146103ba57806340d097c3146103d857806342842e0e146103f45761023d565b806318160ddd1161021057806318160ddd146102dc5780631fe543e3146102fa57806322a900821461031657806323b872dd1461033257806324f746971461034e5761023d565b806301ffc9a71461024257806306fdde0314610272578063081812fc14610290578063095ea7b3146102c0575b600080fd5b61025c60048036038101906102579190613529565b610759565b6040516102699190613bb9565b60405180910390f35b61027a61076b565b6040516102879190613cc3565b60405180910390f35b6102aa60048036038101906102a591906135d0565b6107fd565b6040516102b79190613b29565b60405180910390f35b6102da60048036038101906102d591906134e9565b610843565b005b6102e461095b565b6040516102f19190613f8f565b60405180910390f35b610314600480360381019061030f919061362a565b610968565b005b610330600480360381019061032b91906135d0565b610a28565b005b61034c600480360381019061034791906133d3565b610a3a565b005b610356610a9a565b6040516103639190613faa565b60405180910390f35b610386600480360381019061038191906134e9565b610ab0565b6040516103939190613f8f565b60405180910390f35b6103a4610b55565b6040516103b19190613c72565b60405180910390f35b6103c2610b7b565b6040516103cf9190613f8f565b60405180910390f35b6103f260048036038101906103ed9190613366565b610b81565b005b61040e600480360381019061040991906133d3565b610cd4565b005b61042a60048036038101906104259190613583565b610cf4565b005b610446600480360381019061044191906135d0565b610e2f565b6040516104539190613f8f565b60405180910390f35b610464610ea0565b6040516104719190613c57565b60405180910390f35b610494600480360381019061048f91906135d0565b610ec6565b6040516104a19190613b29565b60405180910390f35b6104c460048036038101906104bf9190613583565b610f78565b6040516104d2929190613bd4565b60405180910390f35b6104f560048036038101906104f09190613366565b610f97565b6040516105029190613f8f565b60405180910390f35b61051361104f565b005b61052f600480360381019061052a9190613366565b611063565b005b6105396110af565b6040516105469190613fc5565b60405180910390f35b6105576110c9565b6040516105649190613b29565b60405180910390f35b6105756110f3565b6040516105829190613ca8565b60405180910390f35b6105936111a3565b6040516105a09190613f8f565b60405180910390f35b6105b16111a9565b6040516105be9190613cc3565b60405180910390f35b6105cf61123b565b6040516105dc9190613ca8565b60405180910390f35b6105ff60048036038101906105fa91906134a9565b611241565b005b61061b60048036038101906106169190613686565b611257565b005b61063760048036038101906106329190613426565b611283565b005b610653600480360381019061064e91906135d0565b6112e5565b6040516106609190613cc3565b60405180910390f35b610683600480360381019061067e9190613366565b6112f7565b005b61068d611343565b60405161069a9190613f8f565b60405180910390f35b6106bd60048036038101906106b89190613393565b611349565b6040516106ca9190613bb9565b60405180910390f35b6106ed60048036038101906106e891906136b3565b6113dd565b005b6106f7611411565b6040516107049190613c8d565b60405180910390f35b61072760048036038101906107229190613366565b611424565b005b610743600480360381019061073e91906135d0565b6114a8565b6040516107509190613f8f565b60405180910390f35b6000610764826114cc565b9050919050565b60606000805461077a90614303565b80601f01602080910402602001604051908101604052809291908181526020018280546107a690614303565b80156107f35780601f106107c8576101008083540402835291602001916107f3565b820191906000526020600020905b8154815290600101906020018083116107d657829003601f168201915b5050505050905090565b600061080882611546565b6004600083815260200190815260200160002060009054906101000a900473ffffffffffffffffffffffffffffffffffffffff169050919050565b600061084e82610ec6565b90508073ffffffffffffffffffffffffffffffffffffffff168373ffffffffffffffffffffffffffffffffffffffff1614156108bf576040517f08c379a00000000000000000000000000000000000000000000000000000000081526004016108b690613f2f565b60405180910390fd5b8073ffffffffffffffffffffffffffffffffffffffff166108de611591565b73ffffffffffffffffffffffffffffffffffffffff16148061090d575061090c81610907611591565b611349565b5b61094c576040517f08c379a000000000000000000000000000000000000000000000000000000000815260040161094390613e8f565b60405180910390fd5b6109568383611599565b505050565b6000600880549050905090565b7f000000000000000000000000000000000000000000000000000000000000000073ffffffffffffffffffffffffffffffffffffffff163373ffffffffffffffffffffffffffffffffffffffff1614610a1a57337f00000000000000000000000000000000000000000000000000000000000000006040517f1cf993f4000000000000000000000000000000000000000000000000000000008152600401610a11929190613b44565b60405180910390fd5b610a248282611652565b5050565b610a30611925565b8060138190555050565b610a4b610a45611591565b826119a3565b610a8a576040517f08c379a0000000000000000000000000000000000000000000000000000000008152600401610a8190613f6f565b60405180910390fd5b610a95838383611a38565b505050565b601160009054906101000a900463ffffffff1681565b6000610abb83610f97565b8210610afc576040517f08c379a0000000000000000000000000000000000000000000000000000000008152600401610af390613d6f565b60405180910390fd5b600660008473ffffffffffffffffffffffffffffffffffffffff1673ffffffffffffffffffffffffffffffffffffffff168152602001908152602001600020600083815260200190815260200160002054905092915050565b600e60009054906101000a900473ffffffffffffffffffffffffffffffffffffffff1681565b60145481565b6000610b8d600c611c9f565b9050610b99600c611cad565b610ba38282611cc3565b60006017600081548110610bba57610bb96144cb565b5b906000526020600020018054610bcf90614303565b80601f0160208091040260200160405190810160405280929190818152602001828054610bfb90614303565b8015610c485780601f10610c1d57610100808354040283529160200191610c48565b820191906000526020600020905b815481529060010190602001808311610c2b57829003601f168201915b50505050509050610c598282611ce1565b610ccf6040518060400160405280601581526020017f444f4e45212121206d696e74656420746f6b656e200000000000000000000000815250836040518060400160405280601981526020017f20616e642061737369676e656420746f6b656e2075726c3a200000000000000081525084611d55565b505050565b610cef83838360405180602001604052806000815250611283565b505050565b60135460145442610d05919061412c565b1115610de757426014819055506000610d1c6110f3565b9050601554811415610d6c57610d666040518060400160405280601781526020017f4e4f204348414e4745202d3e2072657475726e696e6721000000000000000000815250611df7565b50610e2b565b601554811215610da6576001601660006101000a81548160ff02191690836001811115610d9c57610d9b61443e565b5b0217905550610dd2565b6000601660006101000a81548160ff02191690836001811115610dcc57610dcb61443e565b5b02179055505b610dda611e90565b8060158190555050610e2a565b610e256040518060400160405280601181526020017f20494e54455256414c204e4f5420555021000000000000000000000000000000815250611df7565b610e2b565b5b5050565b6000610e3961095b565b8210610e7a576040517f08c379a0000000000000000000000000000000000000000000000000000000008152600401610e7190613f4f565b60405180910390fd5b60088281548110610e8e57610e8d6144cb565b5b90600052602060002001549050919050565b600d60009054906101000a900473ffffffffffffffffffffffffffffffffffffffff1681565b6000806002600084815260200190815260200160002060009054906101000a900473ffffffffffffffffffffffffffffffffffffffff169050600073ffffffffffffffffffffffffffffffffffffffff168173ffffffffffffffffffffffffffffffffffffffff161415610f6f576040517f08c379a0000000000000000000000000000000000000000000000000000000008152600401610f6690613f0f565b60405180910390fd5b80915050919050565b6000606060135460145442610f8d919061412c565b1191509250929050565b60008073ffffffffffffffffffffffffffffffffffffffff168273ffffffffffffffffffffffffffffffffffffffff161415611008576040517f08c379a0000000000000000000000000000000000000000000000000000000008152600401610fff90613e4f565b60405180910390fd5b600360008373ffffffffffffffffffffffffffffffffffffffff1673ffffffffffffffffffffffffffffffffffffffff168152602001908152602001600020549050919050565b611057611925565b611061600061201e565b565b61106b611925565b80600d60006101000a81548173ffffffffffffffffffffffffffffffffffffffff021916908373ffffffffffffffffffffffffffffffffffffffff16021790555050565b601160049054906101000a900467ffffffffffffffff1681565b6000600b60009054906101000a900473ffffffffffffffffffffffffffffffffffffffff16905090565b600080600d60009054906101000a900473ffffffffffffffffffffffffffffffffffffffff1673ffffffffffffffffffffffffffffffffffffffff1663feaf968c6040518163ffffffff1660e01b815260040160a06040518083038186803b15801561115e57600080fd5b505afa158015611172573d6000803e3d6000fd5b505050506040513d601f19601f8201168201806040525081019061119691906136e0565b5050509150508091505090565b60135481565b6060600180546111b890614303565b80601f01602080910402602001604051908101604052809291908181526020018280546111e490614303565b80156112315780601f1061120657610100808354040283529160200191611231565b820191906000526020600020905b81548152906001019060200180831161121457829003601f168201915b5050505050905090565b60155481565b61125361124c611591565b83836120e4565b5050565b61125f611925565b80601160006101000a81548163ffffffff021916908363ffffffff16021790555050565b61129461128e611591565b836119a3565b6112d3576040517f08c379a00000000000000000000000000000000000000000000000000000000081526004016112ca90613f6f565b60405180910390fd5b6112df84848484612251565b50505050565b60606112f0826122ad565b9050919050565b6112ff611925565b80600e60006101000a81548173ffffffffffffffffffffffffffffffffffffffff021916908373ffffffffffffffffffffffffffffffffffffffff16021790555050565b60105481565b6000600560008473ffffffffffffffffffffffffffffffffffffffff1673ffffffffffffffffffffffffffffffffffffffff16815260200190815260200160002060008373ffffffffffffffffffffffffffffffffffffffff1673ffffffffffffffffffffffffffffffffffffffff16815260200190815260200160002060009054906101000a900460ff16905092915050565b6113e5611925565b80601160046101000a81548167ffffffffffffffff021916908367ffffffffffffffff16021790555050565b601660009054906101000a900460ff1681565b61142c611925565b600073ffffffffffffffffffffffffffffffffffffffff168173ffffffffffffffffffffffffffffffffffffffff16141561149c576040517f08c379a000000000000000000000000000000000000000000000000000000000815260040161149390613daf565b60405180910390fd5b6114a58161201e565b50565b600f81815481106114b857600080fd5b906000526020600020016000915090505481565b60007f780e9d63000000000000000000000000000000000000000000000000000000007bffffffffffffffffffffffffffffffffffffffffffffffffffffffff1916827bffffffffffffffffffffffffffffffffffffffffffffffffffffffff1916148061153f575061153e826123c0565b5b9050919050565b61154f816124a2565b61158e576040517f08c379a000000000000000000000000000000000000000000000000000000000815260040161158590613f0f565b60405180910390fd5b50565b600033905090565b816004600083815260200190815260200160002060006101000a81548173ffffffffffffffffffffffffffffffffffffffff021916908373ffffffffffffffffffffffffffffffffffffffff160217905550808273ffffffffffffffffffffffffffffffffffffffff1661160c83610ec6565b73ffffffffffffffffffffffffffffffffffffffff167f8c5be1e5ebec7d5bd14f71427d1e84f3dd0314c0f7b2291e5b200ac8c7c3b92560405160405180910390a45050565b80600f9080519060200190611668929190613040565b506116a76040518060400160405280601a81526020017f2e2e2e46756c66696c6c696e672072616e646f6d20576f726473000000000000815250611df7565b60008060018111156116bc576116bb61443e565b5b601660009054906101000a900460ff1660018111156116de576116dd61443e565b5b146116ea5760186116ed565b60175b805480602002602001604051908101604052809291908181526020016000905b828210156117b957838290600052602060002001805461172c90614303565b80601f016020809104026020016040519081016040528092919081815260200182805461175890614303565b80156117a55780601f1061177a576101008083540402835291602001916117a5565b820191906000526020600020905b81548152906001019060200180831161178857829003601f168201915b50505050508152602001906001019061170d565b50505050905060008151836000815181106117d7576117d66144cb565b5b60200260200101516117e991906143af565b905060005b6117f8600c611c9f565b8110156118365761182381848481518110611816576118156144cb565b5b6020026020010151611ce1565b808061182e90614366565b9150506117ee565b50600080600181111561184c5761184b61443e565b5b601660009054906101000a900460ff16600181111561186e5761186d61443e565b5b146118ae576040518060400160405280600781526020017f62656172697368000000000000000000000000000000000000000000000000008152506118e5565b6040518060400160405280600781526020017f62756c6c697368000000000000000000000000000000000000000000000000008152505b90507f1cd67277dcd039d660f99499bdb46e90175d6160e3f9ab788a032b7a1ad2356a816040516119169190613cc3565b60405180910390a15050505050565b61192d611591565b73ffffffffffffffffffffffffffffffffffffffff1661194b6110c9565b73ffffffffffffffffffffffffffffffffffffffff16146119a1576040517f08c379a000000000000000000000000000000000000000000000000000000000815260040161199890613ecf565b60405180910390fd5b565b6000806119af83610ec6565b90508073ffffffffffffffffffffffffffffffffffffffff168473ffffffffffffffffffffffffffffffffffffffff1614806119f157506119f08185611349565b5b80611a2f57508373ffffffffffffffffffffffffffffffffffffffff16611a17846107fd565b73ffffffffffffffffffffffffffffffffffffffff16145b91505092915050565b8273ffffffffffffffffffffffffffffffffffffffff16611a5882610ec6565b73ffffffffffffffffffffffffffffffffffffffff1614611aae576040517f08c379a0000000000000000000000000000000000000000000000000000000008152600401611aa590613dcf565b60405180910390fd5b600073ffffffffffffffffffffffffffffffffffffffff168273ffffffffffffffffffffffffffffffffffffffff161415611b1e576040517f08c379a0000000000000000000000000000000000000000000000000000000008152600401611b1590613e0f565b60405180910390fd5b611b2983838361250e565b611b34600082611599565b6001600360008573ffffffffffffffffffffffffffffffffffffffff1673ffffffffffffffffffffffffffffffffffffffff1681526020019081526020016000206000828254611b84919061412c565b925050819055506001600360008473ffffffffffffffffffffffffffffffffffffffff1673ffffffffffffffffffffffffffffffffffffffff1681526020019081526020016000206000828254611bdb91906140a5565b92505081905550816002600083815260200190815260200160002060006101000a81548173ffffffffffffffffffffffffffffffffffffffff021916908373ffffffffffffffffffffffffffffffffffffffff160217905550808273ffffffffffffffffffffffffffffffffffffffff168473ffffffffffffffffffffffffffffffffffffffff167fddf252ad1be2c89b69c2b068fc378daa952ba7f163c4a11628f55a4df523b3ef60405160405180910390a4611c9a83838361251e565b505050565b600081600001549050919050565b6001816000016000828254019250508190555050565b611cdd828260405180602001604052806000815250612523565b5050565b611cea826124a2565b611d29576040517f08c379a0000000000000000000000000000000000000000000000000000000008152600401611d2090613e6f565b60405180910390fd5b80600a60008481526020019081526020016000209080519060200190611d5092919061308d565b505050565b611df184848484604051602401611d6f9493929190613d15565b6040516020818303038152906040527f5ab84e1f000000000000000000000000000000000000000000000000000000007bffffffffffffffffffffffffffffffffffffffffffffffffffffffff19166020820180517bffffffffffffffffffffffffffffffffffffffffffffffffffffffff838183161783525050505061257e565b50505050565b611e8d81604051602401611e0b9190613cc3565b6040516020818303038152906040527f41304fac000000000000000000000000000000000000000000000000000000007bffffffffffffffffffffffffffffffffffffffffffffffffffffffff19166020820180517bffffffffffffffffffffffffffffffffffffffffffffffffffffffff838183161783525050505061257e565b50565b6000601160049054906101000a900467ffffffffffffffff1667ffffffffffffffff161415611ef4576040517f08c379a0000000000000000000000000000000000000000000000000000000008152600401611eeb90613eef565b60405180910390fd5b600e60009054906101000a900473ffffffffffffffffffffffffffffffffffffffff1673ffffffffffffffffffffffffffffffffffffffff16635d3b1d30601254601160049054906101000a900467ffffffffffffffff166003601160009054906101000a900463ffffffff1660016040518663ffffffff1660e01b8152600401611f83959493929190613c04565b602060405180830381600087803b158015611f9d57600080fd5b505af1158015611fb1573d6000803e3d6000fd5b505050506040513d601f19601f82011682018060405250810190611fd591906135fd565b60108190555061201c6040518060400160405280600c81526020017f526571756573742049443a2000000000000000000000000000000000000000008152506010546125a7565b565b6000600b60009054906101000a900473ffffffffffffffffffffffffffffffffffffffff16905081600b60006101000a81548173ffffffffffffffffffffffffffffffffffffffff021916908373ffffffffffffffffffffffffffffffffffffffff1602179055508173ffffffffffffffffffffffffffffffffffffffff168173ffffffffffffffffffffffffffffffffffffffff167f8be0079c531659141344cd1fd0a4f28419497f9722a3daafe3b4186f6b6457e060405160405180910390a35050565b8173ffffffffffffffffffffffffffffffffffffffff168373ffffffffffffffffffffffffffffffffffffffff161415612153576040517f08c379a000000000000000000000000000000000000000000000000000000000815260040161214a90613e2f565b60405180910390fd5b80600560008573ffffffffffffffffffffffffffffffffffffffff1673ffffffffffffffffffffffffffffffffffffffff16815260200190815260200160002060008473ffffffffffffffffffffffffffffffffffffffff1673ffffffffffffffffffffffffffffffffffffffff16815260200190815260200160002060006101000a81548160ff0219169083151502179055508173ffffffffffffffffffffffffffffffffffffffff168373ffffffffffffffffffffffffffffffffffffffff167f17307eab39ab6107e8899845ad3d59bd9653f200f220920489ca2b5937696c31836040516122449190613bb9565b60405180910390a3505050565b61225c848484611a38565b61226884848484612643565b6122a7576040517f08c379a000000000000000000000000000000000000000000000000000000000815260040161229e90613d8f565b60405180910390fd5b50505050565b60606122b882611546565b6000600a600084815260200190815260200160002080546122d890614303565b80601f016020809104026020016040519081016040528092919081815260200182805461230490614303565b80156123515780601f1061232657610100808354040283529160200191612351565b820191906000526020600020905b81548152906001019060200180831161233457829003601f168201915b5050505050905060006123626127da565b90506000815114156123785781925050506123bb565b6000825111156123ad578082604051602001612395929190613b05565b604051602081830303815290604052925050506123bb565b6123b6846127f1565b925050505b919050565b60007f80ac58cd000000000000000000000000000000000000000000000000000000007bffffffffffffffffffffffffffffffffffffffffffffffffffffffff1916827bffffffffffffffffffffffffffffffffffffffffffffffffffffffff1916148061248b57507f5b5e139f000000000000000000000000000000000000000000000000000000007bffffffffffffffffffffffffffffffffffffffffffffffffffffffff1916827bffffffffffffffffffffffffffffffffffffffffffffffffffffffff1916145b8061249b575061249a82612859565b5b9050919050565b60008073ffffffffffffffffffffffffffffffffffffffff166002600084815260200190815260200160002060009054906101000a900473ffffffffffffffffffffffffffffffffffffffff1673ffffffffffffffffffffffffffffffffffffffff1614159050919050565b6125198383836128c3565b505050565b505050565b61252d83836129d7565b61253a6000848484612643565b612579576040517f08c379a000000000000000000000000000000000000000000000000000000000815260040161257090613d8f565b60405180910390fd5b505050565b60008151905060006a636f6e736f6c652e6c6f679050602083016000808483855afa5050505050565b61263f82826040516024016125bd929190613ce5565b6040516020818303038152906040527fb60e72cc000000000000000000000000000000000000000000000000000000007bffffffffffffffffffffffffffffffffffffffffffffffffffffffff19166020820180517bffffffffffffffffffffffffffffffffffffffffffffffffffffffff838183161783525050505061257e565b5050565b60006126648473ffffffffffffffffffffffffffffffffffffffff16612bb1565b156127cd578373ffffffffffffffffffffffffffffffffffffffff1663150b7a0261268d611591565b8786866040518563ffffffff1660e01b81526004016126af9493929190613b6d565b602060405180830381600087803b1580156126c957600080fd5b505af19250505080156126fa57506040513d601f19601f820116820180604052508101906126f79190613556565b60015b61277d573d806000811461272a576040519150601f19603f3d011682016040523d82523d6000602084013e61272f565b606091505b50600081511415612775576040517f08c379a000000000000000000000000000000000000000000000000000000000815260040161276c90613d8f565b60405180910390fd5b805181602001fd5b63150b7a0260e01b7bffffffffffffffffffffffffffffffffffffffffffffffffffffffff1916817bffffffffffffffffffffffffffffffffffffffffffffffffffffffff1916149150506127d2565b600190505b949350505050565b606060405180602001604052806000815250905090565b60606127fc82611546565b60006128066127da565b905060008151116128265760405180602001604052806000815250612851565b8061283084612bd4565b604051602001612841929190613b05565b6040516020818303038152906040525b915050919050565b60007f01ffc9a7000000000000000000000000000000000000000000000000000000007bffffffffffffffffffffffffffffffffffffffffffffffffffffffff1916827bffffffffffffffffffffffffffffffffffffffffffffffffffffffff1916149050919050565b6128ce838383612d35565b600073ffffffffffffffffffffffffffffffffffffffff168373ffffffffffffffffffffffffffffffffffffffff1614156129115761290c81612d3a565b612950565b8173ffffffffffffffffffffffffffffffffffffffff168373ffffffffffffffffffffffffffffffffffffffff161461294f5761294e8382612d83565b5b5b600073ffffffffffffffffffffffffffffffffffffffff168273ffffffffffffffffffffffffffffffffffffffff1614156129935761298e81612ef0565b6129d2565b8273ffffffffffffffffffffffffffffffffffffffff168273ffffffffffffffffffffffffffffffffffffffff16146129d1576129d08282612fc1565b5b5b505050565b600073ffffffffffffffffffffffffffffffffffffffff168273ffffffffffffffffffffffffffffffffffffffff161415612a47576040517f08c379a0000000000000000000000000000000000000000000000000000000008152600401612a3e90613eaf565b60405180910390fd5b612a50816124a2565b15612a90576040517f08c379a0000000000000000000000000000000000000000000000000000000008152600401612a8790613def565b60405180910390fd5b612a9c6000838361250e565b6001600360008473ffffffffffffffffffffffffffffffffffffffff1673ffffffffffffffffffffffffffffffffffffffff1681526020019081526020016000206000828254612aec91906140a5565b92505081905550816002600083815260200190815260200160002060006101000a81548173ffffffffffffffffffffffffffffffffffffffff021916908373ffffffffffffffffffffffffffffffffffffffff160217905550808273ffffffffffffffffffffffffffffffffffffffff16600073ffffffffffffffffffffffffffffffffffffffff167fddf252ad1be2c89b69c2b068fc378daa952ba7f163c4a11628f55a4df523b3ef60405160405180910390a4612bad6000838361251e565b5050565b6000808273ffffffffffffffffffffffffffffffffffffffff163b119050919050565b60606000821415612c1c576040518060400160405280600181526020017f30000000000000000000000000000000000000000000000000000000000000008152509050612d30565b600082905060005b60008214612c4e578080612c3790614366565b915050600a82612c4791906140fb565b9150612c24565b60008167ffffffffffffffff811115612c6a57612c696144fa565b5b6040519080825280601f01601f191660200182016040528015612c9c5781602001600182028036833780820191505090505b5090505b60008514612d2957600182612cb5919061412c565b9150600a85612cc491906143af565b6030612cd091906140a5565b60f81b818381518110612ce657612ce56144cb565b5b60200101907effffffffffffffffffffffffffffffffffffffffffffffffffffffffffffff1916908160001a905350600a85612d2291906140fb565b9450612ca0565b8093505050505b919050565b505050565b6008805490506009600083815260200190815260200160002081905550600881908060018154018082558091505060019003906000526020600020016000909190919091505550565b60006001612d9084610f97565b612d9a919061412c565b9050600060076000848152602001908152602001600020549050818114612e7f576000600660008673ffffffffffffffffffffffffffffffffffffffff1673ffffffffffffffffffffffffffffffffffffffff168152602001908152602001600020600084815260200190815260200160002054905080600660008773ffffffffffffffffffffffffffffffffffffffff1673ffffffffffffffffffffffffffffffffffffffff168152602001908152602001600020600084815260200190815260200160002081905550816007600083815260200190815260200160002081905550505b6007600084815260200190815260200160002060009055600660008573ffffffffffffffffffffffffffffffffffffffff1673ffffffffffffffffffffffffffffffffffffffff16815260200190815260200160002060008381526020019081526020016000206000905550505050565b60006001600880549050612f04919061412c565b9050600060096000848152602001908152602001600020549050600060088381548110612f3457612f336144cb565b5b906000526020600020015490508060088381548110612f5657612f556144cb565b5b906000526020600020018190555081600960008381526020019081526020016000208190555060096000858152602001908152602001600020600090556008805480612fa557612fa461449c565b5b6001900381819060005260206000200160009055905550505050565b6000612fcc83610f97565b905081600660008573ffffffffffffffffffffffffffffffffffffffff1673ffffffffffffffffffffffffffffffffffffffff168152602001908152602001600020600083815260200190815260200160002081905550806007600084815260200190815260200160002081905550505050565b82805482825590600052602060002090810192821561307c579160200282015b8281111561307b578251825591602001919060010190613060565b5b5090506130899190613113565b5090565b82805461309990614303565b90600052602060002090601f0160209004810192826130bb5760008555613102565b82601f106130d457805160ff1916838001178555613102565b82800160010185558215613102579182015b828111156131015782518255916020019190600101906130e6565b5b50905061310f9190613113565b5090565b5b8082111561312c576000816000905550600101613114565b5090565b600061314361313e84614005565b613fe0565b9050808382526020820190508285602086028201111561316657613165614533565b5b60005b85811015613196578161317c88826132fd565b845260208401935060208301925050600181019050613169565b5050509392505050565b60006131b36131ae84614031565b613fe0565b9050828152602081018484840111156131cf576131ce614538565b5b6131da8482856142c1565b509392505050565b6000813590506131f1816149c7565b92915050565b600082601f83011261320c5761320b61452e565b5b813561321c848260208601613130565b91505092915050565b600081359050613234816149de565b92915050565b600081359050613249816149f5565b92915050565b60008151905061325e816149f5565b92915050565b60008083601f84011261327a5761327961452e565b5b8235905067ffffffffffffffff81111561329757613296614529565b5b6020830191508360018202830111156132b3576132b2614533565b5b9250929050565b600082601f8301126132cf576132ce61452e565b5b81356132df8482602086016131a0565b91505092915050565b6000815190506132f781614a0c565b92915050565b60008135905061330c81614a23565b92915050565b60008151905061332181614a23565b92915050565b60008135905061333681614a3a565b92915050565b60008135905061334b81614a51565b92915050565b60008151905061336081614a68565b92915050565b60006020828403121561337c5761337b614542565b5b600061338a848285016131e2565b91505092915050565b600080604083850312156133aa576133a9614542565b5b60006133b8858286016131e2565b92505060206133c9858286016131e2565b9150509250929050565b6000806000606084860312156133ec576133eb614542565b5b60006133fa868287016131e2565b935050602061340b868287016131e2565b925050604061341c868287016132fd565b9150509250925092565b600080600080608085870312156134405761343f614542565b5b600061344e878288016131e2565b945050602061345f878288016131e2565b9350506040613470878288016132fd565b925050606085013567ffffffffffffffff8111156134915761349061453d565b5b61349d878288016132ba565b91505092959194509250565b600080604083850312156134c0576134bf614542565b5b60006134ce858286016131e2565b92505060206134df85828601613225565b9150509250929050565b60008060408385031215613500576134ff614542565b5b600061350e858286016131e2565b925050602061351f858286016132fd565b9150509250929050565b60006020828403121561353f5761353e614542565b5b600061354d8482850161323a565b91505092915050565b60006020828403121561356c5761356b614542565b5b600061357a8482850161324f565b91505092915050565b6000806020838503121561359a57613599614542565b5b600083013567ffffffffffffffff8111156135b8576135b761453d565b5b6135c485828601613264565b92509250509250929050565b6000602082840312156135e6576135e5614542565b5b60006135f4848285016132fd565b91505092915050565b60006020828403121561361357613612614542565b5b600061362184828501613312565b91505092915050565b6000806040838503121561364157613640614542565b5b600061364f858286016132fd565b925050602083013567ffffffffffffffff8111156136705761366f61453d565b5b61367c858286016131f7565b9150509250929050565b60006020828403121561369c5761369b614542565b5b60006136aa84828501613327565b91505092915050565b6000602082840312156136c9576136c8614542565b5b60006136d78482850161333c565b91505092915050565b600080600080600060a086880312156136fc576136fb614542565b5b600061370a88828901613351565b955050602061371b888289016132e8565b945050604061372c88828901613312565b935050606061373d88828901613312565b925050608061374e88828901613351565b9150509295509295909350565b61376481614160565b82525050565b61377381614172565b82525050565b6137828161417e565b82525050565b600061379382614062565b61379d8185614078565b93506137ad8185602086016142d0565b6137b681614547565b840191505092915050565b6137ca81614243565b82525050565b6137d981614255565b82525050565b6137e881614267565b82525050565b6137f7816141c7565b82525050565b61380681614279565b82525050565b6138158161428b565b82525050565b60006138268261406d565b6138308185614089565b93506138408185602086016142d0565b61384981614547565b840191505092915050565b600061385f8261406d565b613869818561409a565b93506138798185602086016142d0565b80840191505092915050565b6000613892602b83614089565b915061389d82614558565b604082019050919050565b60006138b5603283614089565b91506138c0826145a7565b604082019050919050565b60006138d8602683614089565b91506138e3826145f6565b604082019050919050565b60006138fb602583614089565b915061390682614645565b604082019050919050565b600061391e601c83614089565b915061392982614694565b602082019050919050565b6000613941602483614089565b915061394c826146bd565b604082019050919050565b6000613964601983614089565b915061396f8261470c565b602082019050919050565b6000613987602983614089565b915061399282614735565b604082019050919050565b60006139aa602e83614089565b91506139b582614784565b604082019050919050565b60006139cd603e83614089565b91506139d8826147d3565b604082019050919050565b60006139f0602083614089565b91506139fb82614822565b602082019050919050565b6000613a13602083614089565b9150613a1e8261484b565b602082019050919050565b6000613a36601783614089565b9150613a4182614874565b602082019050919050565b6000613a59601883614089565b9150613a648261489d565b602082019050919050565b6000613a7c602183614089565b9150613a87826148c6565b604082019050919050565b6000613a9f602c83614089565b9150613aaa82614915565b604082019050919050565b6000613ac2602e83614089565b9150613acd82614964565b604082019050919050565b613ae1816141ff565b82525050565b613af081614209565b82525050565b613aff81614219565b82525050565b6000613b118285613854565b9150613b1d8284613854565b91508190509392505050565b6000602082019050613b3e600083018461375b565b92915050565b6000604082019050613b59600083018561375b565b613b66602083018461375b565b9392505050565b6000608082019050613b82600083018761375b565b613b8f602083018661375b565b613b9c6040830185613ad8565b8181036060830152613bae8184613788565b905095945050505050565b6000602082019050613bce600083018461376a565b92915050565b6000604082019050613be9600083018561376a565b8181036020830152613bfb8184613788565b90509392505050565b600060a082019050613c196000830188613779565b613c266020830187613af6565b613c33604083018661380c565b613c406060830185613ae7565b613c4d60808301846137fd565b9695505050505050565b6000602082019050613c6c60008301846137c1565b92915050565b6000602082019050613c8760008301846137d0565b92915050565b6000602082019050613ca260008301846137df565b92915050565b6000602082019050613cbd60008301846137ee565b92915050565b60006020820190508181036000830152613cdd818461381b565b905092915050565b60006040820190508181036000830152613cff818561381b565b9050613d0e6020830184613ad8565b9392505050565b60006080820190508181036000830152613d2f818761381b565b9050613d3e6020830186613ad8565b8181036040830152613d50818561381b565b90508181036060830152613d64818461381b565b905095945050505050565b60006020820190508181036000830152613d8881613885565b9050919050565b60006020820190508181036000830152613da8816138a8565b9050919050565b60006020820190508181036000830152613dc8816138cb565b9050919050565b60006020820190508181036000830152613de8816138ee565b9050919050565b60006020820190508181036000830152613e0881613911565b9050919050565b60006020820190508181036000830152613e2881613934565b9050919050565b60006020820190508181036000830152613e4881613957565b9050919050565b60006020820190508181036000830152613e688161397a565b9050919050565b60006020820190508181036000830152613e888161399d565b9050919050565b60006020820190508181036000830152613ea8816139c0565b9050919050565b60006020820190508181036000830152613ec8816139e3565b9050919050565b60006020820190508181036000830152613ee881613a06565b9050919050565b60006020820190508181036000830152613f0881613a29565b9050919050565b60006020820190508181036000830152613f2881613a4c565b9050919050565b60006020820190508181036000830152613f4881613a6f565b9050919050565b60006020820190508181036000830152613f6881613a92565b9050919050565b60006020820190508181036000830152613f8881613ab5565b9050919050565b6000602082019050613fa46000830184613ad8565b92915050565b6000602082019050613fbf6000830184613ae7565b92915050565b6000602082019050613fda6000830184613af6565b92915050565b6000613fea613ffb565b9050613ff68282614335565b919050565b6000604051905090565b600067ffffffffffffffff8211156140205761401f6144fa565b5b602082029050602081019050919050565b600067ffffffffffffffff82111561404c5761404b6144fa565b5b61405582614547565b9050602081019050919050565b600081519050919050565b600081519050919050565b600082825260208201905092915050565b600082825260208201905092915050565b600081905092915050565b60006140b0826141ff565b91506140bb836141ff565b9250827fffffffffffffffffffffffffffffffffffffffffffffffffffffffffffffffff038211156140f0576140ef6143e0565b5b828201905092915050565b6000614106826141ff565b9150614111836141ff565b9250826141215761412061440f565b5b828204905092915050565b6000614137826141ff565b9150614142836141ff565b925082821015614155576141546143e0565b5b828203905092915050565b600061416b826141df565b9050919050565b60008115159050919050565b6000819050919050565b60007fffffffff0000000000000000000000000000000000000000000000000000000082169050919050565b60008190506141c2826149b3565b919050565b6000819050919050565b600061ffff82169050919050565b600073ffffffffffffffffffffffffffffffffffffffff82169050919050565b6000819050919050565b600063ffffffff82169050919050565b600067ffffffffffffffff82169050919050565b600069ffffffffffffffffffff82169050919050565b600061424e8261429d565b9050919050565b60006142608261429d565b9050919050565b6000614272826141b4565b9050919050565b600061428482614209565b9050919050565b6000614296826141d1565b9050919050565b60006142a8826142af565b9050919050565b60006142ba826141df565b9050919050565b82818337600083830152505050565b60005b838110156142ee5780820151818401526020810190506142d3565b838111156142fd576000848401525b50505050565b6000600282049050600182168061431b57607f821691505b6020821081141561432f5761432e61446d565b5b50919050565b61433e82614547565b810181811067ffffffffffffffff8211171561435d5761435c6144fa565b5b80604052505050565b6000614371826141ff565b91507fffffffffffffffffffffffffffffffffffffffffffffffffffffffffffffffff8214156143a4576143a36143e0565b5b600182019050919050565b60006143ba826141ff565b91506143c5836141ff565b9250826143d5576143d461440f565b5b828206905092915050565b7f4e487b7100000000000000000000000000000000000000000000000000000000600052601160045260246000fd5b7f4e487b7100000000000000000000000000000000000000000000000000000000600052601260045260246000fd5b7f4e487b7100000000000000000000000000000000000000000000000000000000600052602160045260246000fd5b7f4e487b7100000000000000000000000000000000000000000000000000000000600052602260045260246000fd5b7f4e487b7100000000000000000000000000000000000000000000000000000000600052603160045260246000fd5b7f4e487b7100000000000000000000000000000000000000000000000000000000600052603260045260246000fd5b7f4e487b7100000000000000000000000000000000000000000000000000000000600052604160045260246000fd5b600080fd5b600080fd5b600080fd5b600080fd5b600080fd5b600080fd5b6000601f19601f8301169050919050565b7f455243373231456e756d657261626c653a206f776e657220696e646578206f7560008201527f74206f6620626f756e6473000000000000000000000000000000000000000000602082015250565b7f4552433732313a207472616e7366657220746f206e6f6e20455243373231526560008201527f63656976657220696d706c656d656e7465720000000000000000000000000000602082015250565b7f4f776e61626c653a206e6577206f776e657220697320746865207a65726f206160008201527f6464726573730000000000000000000000000000000000000000000000000000602082015250565b7f4552433732313a207472616e736665722066726f6d20696e636f72726563742060008201527f6f776e6572000000000000000000000000000000000000000000000000000000602082015250565b7f4552433732313a20746f6b656e20616c7265616479206d696e74656400000000600082015250565b7f4552433732313a207472616e7366657220746f20746865207a65726f2061646460008201527f7265737300000000000000000000000000000000000000000000000000000000602082015250565b7f4552433732313a20617070726f766520746f2063616c6c657200000000000000600082015250565b7f4552433732313a2061646472657373207a65726f206973206e6f74206120766160008201527f6c6964206f776e65720000000000000000000000000000000000000000000000602082015250565b7f45524337323155524953746f726167653a2055524920736574206f66206e6f6e60008201527f6578697374656e7420746f6b656e000000000000000000000000000000000000602082015250565b7f4552433732313a20617070726f76652063616c6c6572206973206e6f7420746f60008201527f6b656e206f776e6572206e6f7220617070726f76656420666f7220616c6c0000602082015250565b7f4552433732313a206d696e7420746f20746865207a65726f2061646472657373600082015250565b7f4f776e61626c653a2063616c6c6572206973206e6f7420746865206f776e6572600082015250565b7f537562736372697074696f6e204944206e6f7420736574000000000000000000600082015250565b7f4552433732313a20696e76616c696420746f6b656e2049440000000000000000600082015250565b7f4552433732313a20617070726f76616c20746f2063757272656e74206f776e6560008201527f7200000000000000000000000000000000000000000000000000000000000000602082015250565b7f455243373231456e756d657261626c653a20676c6f62616c20696e646578206f60008201527f7574206f6620626f756e64730000000000000000000000000000000000000000602082015250565b7f4552433732313a2063616c6c6572206973206e6f7420746f6b656e206f776e6560008201527f72206e6f7220617070726f766564000000000000000000000000000000000000602082015250565b600281106149c4576149c361443e565b5b50565b6149d081614160565b81146149db57600080fd5b50565b6149e781614172565b81146149f257600080fd5b50565b6149fe81614188565b8114614a0957600080fd5b50565b614a15816141c7565b8114614a2057600080fd5b50565b614a2c816141ff565b8114614a3757600080fd5b50565b614a4381614209565b8114614a4e57600080fd5b50565b614a5a81614219565b8114614a6557600080fd5b50565b614a718161422d565b8114614a7c57600080fd5b5056fea2646970667358221220f83fbd8ccd5617898baa5eb425e2eb052d7310a113601ffda13721963fca7fe064736f6c6343000807003368747470733a2f2f697066732e696f2f697066732f516d646355526d4e316b4545744b676e626b564a4a3868726d73535748705a764c6b5267734b4b6f6957765739673f66696c656e616d653d73696d706c655f62756c6c2e6a736f6e68747470733a2f2f697066732e696f2f697066732f516d5258796669336f4e5a43756244786956467265336b4c5a3858654774367051736e4151525a37616b68534e733f66696c656e616d653d67616d65725f62756c6c2e6a736f6e68747470733a2f2f697066732e696f2f697066732f516d624b68425856576d777259735450465966726f52324e374e41656b414d78485556673243576b73376939716a3f66696c656e616d653d73696d706c655f626561722e6a736f6e68747470733a2f2f697066732e696f2f697066732f516d6478394878374643445a474578796a4c52367659636e75745552384b68425a426e5a6641504869556f6d6d4e3f66696c656e616d653d6265616e69655f626561722e6a736f6e68747470733a2f2f697066732e696f2f697066732f516d524a5646654d7274595332435556554d3263484a70425635615832787572706e73665a784c545451626944333f66696c656e616d653d70617274795f62756c6c2e6a736f6e68747470733a2f2f697066732e696f2f697066732f516d54564c79545375694b4755456d6238384267584733714e4338596770485a6946626a4872584b4833514845753f66696c656e616d653d636f6f6c696f5f626561722e6a736f6e",
  "devdoc": {
    "kind": "dev",
    "methods": {
      "approve(address,uint256)": {
        "details": "See {IERC721-approve}."
      },
      "balanceOf(address)": {
        "details": "See {IERC721-balanceOf}."
      },
      "getApproved(uint256)": {
        "details": "See {IERC721-getApproved}."
      },
      "isApprovedForAll(address,address)": {
        "details": "See {IERC721-isApprovedForAll}."
      },
      "name()": {
        "details": "See {IERC721Metadata-name}."
      },
      "owner()": {
        "details": "Returns the address of the current owner."
      },
      "ownerOf(uint256)": {
        "details": "See {IERC721-ownerOf}."
      },
      "renounceOwnership()": {
        "details": "Leaves the contract without owner. It will not be possible to call `onlyOwner` functions anymore. Can only be called by the current owner. NOTE: Renouncing ownership will leave the contract without an owner, thereby removing any functionality that is only available to the owner."
      },
      "safeTransferFrom(address,address,uint256)": {
        "details": "See {IERC721-safeTransferFrom}."
      },
      "safeTransferFrom(address,address,uint256,bytes)": {
        "details": "See {IERC721-safeTransferFrom}."
      },
      "setApprovalForAll(address,bool)": {
        "details": "See {IERC721-setApprovalForAll}."
      },
      "symbol()": {
        "details": "See {IERC721Metadata-symbol}."
      },
      "tokenByIndex(uint256)": {
        "details": "See {IERC721Enumerable-tokenByIndex}."
      },
      "tokenOfOwnerByIndex(address,uint256)": {
        "details": "See {IERC721Enumerable-tokenOfOwnerByIndex}."
      },
      "totalSupply()": {
        "details": "See {IERC721Enumerable-totalSupply}."
      },
      "transferFrom(address,address,uint256)": {
        "details": "See {IERC721-transferFrom}."
      },
      "transferOwnership(address)": {
        "details": "Transfers ownership of the contract to a new account (`newOwner`). Can only be called by the current owner."
      }
    },
    "version": 1
  },
  "userdoc": {
    "kind": "user",
    "methods": {
      "interval()": {
        "notice": "Use an interval in seconds and a timestamp to slow execution of Upkeep"
      }
    },
    "version": 1
  },
  "storageLayout": {
    "storage": [
      {
        "astId": 396,
        "contract": "contracts/Bull&Bear.sol:BullBear",
        "label": "_name",
        "offset": 0,
        "slot": "0",
        "type": "t_string_storage"
      },
      {
        "astId": 398,
        "contract": "contracts/Bull&Bear.sol:BullBear",
        "label": "_symbol",
        "offset": 0,
        "slot": "1",
        "type": "t_string_storage"
      },
      {
        "astId": 402,
        "contract": "contracts/Bull&Bear.sol:BullBear",
        "label": "_owners",
        "offset": 0,
        "slot": "2",
        "type": "t_mapping(t_uint256,t_address)"
      },
      {
        "astId": 406,
        "contract": "contracts/Bull&Bear.sol:BullBear",
        "label": "_balances",
        "offset": 0,
        "slot": "3",
        "type": "t_mapping(t_address,t_uint256)"
      },
      {
        "astId": 410,
        "contract": "contracts/Bull&Bear.sol:BullBear",
        "label": "_tokenApprovals",
        "offset": 0,
        "slot": "4",
        "type": "t_mapping(t_uint256,t_address)"
      },
      {
        "astId": 416,
        "contract": "contracts/Bull&Bear.sol:BullBear",
        "label": "_operatorApprovals",
        "offset": 0,
        "slot": "5",
        "type": "t_mapping(t_address,t_mapping(t_address,t_bool))"
      },
      {
        "astId": 1386,
        "contract": "contracts/Bull&Bear.sol:BullBear",
        "label": "_ownedTokens",
        "offset": 0,
        "slot": "6",
        "type": "t_mapping(t_address,t_mapping(t_uint256,t_uint256))"
      },
      {
        "astId": 1390,
        "contract": "contracts/Bull&Bear.sol:BullBear",
        "label": "_ownedTokensIndex",
        "offset": 0,
        "slot": "7",
        "type": "t_mapping(t_uint256,t_uint256)"
      },
      {
        "astId": 1393,
        "contract": "contracts/Bull&Bear.sol:BullBear",
        "label": "_allTokens",
        "offset": 0,
        "slot": "8",
        "type": "t_array(t_uint256)dyn_storage"
      },
      {
        "astId": 1397,
        "contract": "contracts/Bull&Bear.sol:BullBear",
        "label": "_allTokensIndex",
        "offset": 0,
        "slot": "9",
        "type": "t_mapping(t_uint256,t_uint256)"
      },
      {
        "astId": 1722,
        "contract": "contracts/Bull&Bear.sol:BullBear",
        "label": "_tokenURIs",
        "offset": 0,
        "slot": "10",
        "type": "t_mapping(t_uint256,t_string_storage)"
      },
      {
        "astId": 265,
        "contract": "contracts/Bull&Bear.sol:BullBear",
        "label": "_owner",
        "offset": 0,
        "slot": "11",
        "type": "t_address"
      },
      {
        "astId": 2577,
        "contract": "contracts/Bull&Bear.sol:BullBear",
        "label": "_tokenIdCounter",
        "offset": 0,
        "slot": "12",
        "type": "t_struct(Counter)2215_storage"
      },
      {
        "astId": 2580,
        "contract": "contracts/Bull&Bear.sol:BullBear",
        "label": "pricefeed",
        "offset": 0,
        "slot": "13",
        "type": "t_contract(AggregatorV3Interface)142"
      },
      {
        "astId": 2583,
        "contract": "contracts/Bull&Bear.sol:BullBear",
        "label": "COORDINATOR",
        "offset": 0,
        "slot": "14",
        "type": "t_contract(VRFCoordinatorV2Interface)257"
      },
      {
        "astId": 2586,
        "contract": "contracts/Bull&Bear.sol:BullBear",
        "label": "s_randomWords",
        "offset": 0,
        "slot": "15",
        "type": "t_array(t_uint256)dyn_storage"
      },
      {
        "astId": 2588,
        "contract": "contracts/Bull&Bear.sol:BullBear",
        "label": "s_requestId",
        "offset": 0,
        "slot": "16",
        "type": "t_uint256"
      },
      {
        "astId": 2591,
        "contract": "contracts/Bull&Bear.sol:BullBear",
        "label": "callbackGasLimit",
        "offset": 0,
        "slot": "17",
        "type": "t_uint32"
      },
      {
        "astId": 2593,
        "contract": "contracts/Bull&Bear.sol:BullBear",
        "label": "s_subscriptionId",
        "offset": 4,
        "slot": "17",
        "type": "t_uint64"
      },
      {
        "astId": 2596,
        "contract": "contracts/Bull&Bear.sol:BullBear",
        "label": "keyhash",
        "offset": 0,
        "slot": "18",
        "type": "t_bytes32"
      },
      {
        "astId": 2599,
        "contract": "contracts/Bull&Bear.sol:BullBear",
        "label": "interval",
        "offset": 0,
        "slot": "19",
        "type": "t_uint256"
      },
      {
        "astId": 2601,
        "contract": "contracts/Bull&Bear.sol:BullBear",
        "label": "lastTimeStamp",
        "offset": 0,
        "slot": "20",
        "type": "t_uint256"
      },
      {
        "astId": 2603,
        "contract": "contracts/Bull&Bear.sol:BullBear",
        "label": "currentPrice",
        "offset": 0,
        "slot": "21",
        "type": "t_int256"
      },
      {
        "astId": 2611,
        "contract": "contracts/Bull&Bear.sol:BullBear",
        "label": "currentMarketTrend",
        "offset": 0,
        "slot": "22",
        "type": "t_enum(MarketTrend)2606"
      },
      {
        "astId": 2618,
        "contract": "contracts/Bull&Bear.sol:BullBear",
        "label": "bullUrisIpfs",
        "offset": 0,
        "slot": "23",
        "type": "t_array(t_string_storage)dyn_storage"
      },
      {
        "astId": 2625,
        "contract": "contracts/Bull&Bear.sol:BullBear",
        "label": "bearUrisIpfs",
        "offset": 0,
        "slot": "24",
        "type": "t_array(t_string_storage)dyn_storage"
      }
    ],
    "types": {
      "t_address": {
        "encoding": "inplace",
        "label": "address",
        "numberOfBytes": "20"
      },
      "t_array(t_string_storage)dyn_storage": {
        "base": "t_string_storage",
        "encoding": "dynamic_array",
        "label": "string[]",
        "numberOfBytes": "32"
      },
      "t_array(t_uint256)dyn_storage": {
        "base": "t_uint256",
        "encoding": "dynamic_array",
        "label": "uint256[]",
        "numberOfBytes": "32"
      },
      "t_bool": {
        "encoding": "inplace",
        "label": "bool",
        "numberOfBytes": "1"
      },
      "t_bytes32": {
        "encoding": "inplace",
        "label": "bytes32",
        "numberOfBytes": "32"
      },
      "t_contract(AggregatorV3Interface)142": {
        "encoding": "inplace",
        "label": "contract AggregatorV3Interface",
        "numberOfBytes": "20"
      },
      "t_contract(VRFCoordinatorV2Interface)257": {
        "encoding": "inplace",
        "label": "contract VRFCoordinatorV2Interface",
        "numberOfBytes": "20"
      },
      "t_enum(MarketTrend)2606": {
        "encoding": "inplace",
        "label": "enum BullBear.MarketTrend",
        "numberOfBytes": "1"
      },
      "t_int256": {
        "encoding": "inplace",
        "label": "int256",
        "numberOfBytes": "32"
      },
      "t_mapping(t_address,t_bool)": {
        "encoding": "mapping",
        "key": "t_address",
        "label": "mapping(address => bool)",
        "numberOfBytes": "32",
        "value": "t_bool"
      },
      "t_mapping(t_address,t_mapping(t_address,t_bool))": {
        "encoding": "mapping",
        "key": "t_address",
        "label": "mapping(address => mapping(address => bool))",
        "numberOfBytes": "32",
        "value": "t_mapping(t_address,t_bool)"
      },
      "t_mapping(t_address,t_mapping(t_uint256,t_uint256))": {
        "encoding": "mapping",
        "key": "t_address",
        "label": "mapping(address => mapping(uint256 => uint256))",
        "numberOfBytes": "32",
        "value": "t_mapping(t_uint256,t_uint256)"
      },
      "t_mapping(t_address,t_uint256)": {
        "encoding": "mapping",
        "key": "t_address",
        "label": "mapping(address => uint256)",
        "numberOfBytes": "32",
        "value": "t_uint256"
      },
      "t_mapping(t_uint256,t_address)": {
        "encoding": "mapping",
        "key": "t_uint256",
        "label": "mapping(uint256 => address)",
        "numberOfBytes": "32",
        "value": "t_address"
      },
      "t_mapping(t_uint256,t_string_storage)": {
        "encoding": "mapping",
        "key": "t_uint256",
        "label": "mapping(uint256 => string)",
        "numberOfBytes": "32",
        "value": "t_string_storage"
      },
      "t_mapping(t_uint256,t_uint256)": {
        "encoding": "mapping",
        "key": "t_uint256",
        "label": "mapping(uint256 => uint256)",
        "numberOfBytes": "32",
        "value": "t_uint256"
      },
      "t_string_storage": {
        "encoding": "bytes",
        "label": "string",
        "numberOfBytes": "32"
      },
      "t_struct(Counter)2215_storage": {
        "encoding": "inplace",
        "label": "struct Counters.Counter",
        "members": [
          {
            "astId": 2214,
            "contract": "contracts/Bull&Bear.sol:BullBear",
            "label": "_value",
            "offset": 0,
            "slot": "0",
            "type": "t_uint256"
          }
        ],
        "numberOfBytes": "32"
      },
      "t_uint256": {
        "encoding": "inplace",
        "label": "uint256",
        "numberOfBytes": "32"
      },
      "t_uint32": {
        "encoding": "inplace",
        "label": "uint32",
        "numberOfBytes": "4"
      },
      "t_uint64": {
        "encoding": "inplace",
        "label": "uint64",
        "numberOfBytes": "8"
      }
    }
  }
}